S0130000626D703238305F746573742E7372656319
S113000033C000004CC000004AC0000048C00000DB
S113001046C0000044C0000042C0000040C00000D0
S11300203EC000003CC000003AC0000038C00000E0
S113003036C0000034C0000032C0000030C00000F0
S11300402EC000002CC000002AC0000028C0000000
S113005026C0000024C0000022C0000020C0000010
S11300601EC000001CC0000011241FBECFEFD8E04A
S1130070DEBFCDBF11E0A0E0B1E0E4E8F0E102C0F2
S113008005900D92A03DB107D9F722E0A0EDB1E0B3
S113009001C01D92A634B207E1F702D4F1C7B0CF74
S11300A004C06150710981099109611571058105C7
S11300B09105B9F708958EBD00000DB407FEFDCF7C
S11300C08EB50895CF93C82F20E041E060E271EA35
S11300D087E090E010D22A988C2F8068ECDF80E0D3
S11300E0EADFC82F2A9AE9D18C2FCF910895CF93B4
S11300F0DF93D82FC62F20E041E060E271EA87E069
S113010090E0F9D12A988D2F8F77D5DF8C2FD3DF0C
S11301102A9AD3D1DF91CF9108950F931F93CF9350
S1130120DF93C0E0D1E090E09D838C8370E079831D
S1130130688350E05B834A8330E0E6E0F1E0338398
S11301402283602F70E071836083660F771F62954E
S11301507295707F7627607F762706811781602BE2
S1130160712B220F331F220F331F622B732B85EF4A
S1130170BEDF68817981660F771F62957295707F03
S11301807627607F76278A819B81880F991F880F45
S1130190991F682B792B8C819D81682B792B84EF97
S11301A0A6DFDF91CF911F910F910895CF93DF9335
S11301B0C82F20E041E060E271EA87E090E09BD143
S11301C02A988C2F806877DF80E075DFD82F80E055
S11301D072DFC82F2A9A71D18C2F90E09D2BDF916A
S11301E0CF910895E3DF9827892798270895CF931F
S11301F0DF9388E8F7DFC8E2D2E0998388838AE84E
S1130200F1DF9B838A838CE8EDDF9D838C838EE80A
S1130210E9DF9F838E8380E9E5DF9987888782E918
S1130220E1DF9B878A8784E9DDDF9D878C8786E908
S1130230D9DF9F878E8788E9D5DF998B888B8AE9F8
S1130240D1DF9B8B8A8B8CE9CDDF9D8B8C8B8EE9E8
S1130250C9DF9F8B8E8BDF91CF9108950F93CF933E
S113026080ED30DFC82F1F928F938CE191E09F9334
S11302708F93DDD30F900F900F900F90C83579F4C2
S1130280B6DF04E024E045E062E083E046DF66E3B5
S113029072E880E090E004DF81E090E002C080E05A
S11302A090E0CF910F910895CF92DF92EF92FF9259
S11302B0CF93C82F20E041E060E271EA87E090E04C
S11302C01AD12A988C2F8068F6DE80E0F4DEC82EDE
S11302D0D12CE12CF12CFE2CED2CDC2CCC2480E058
S11302E0EADEC82AFE2CED2CDC2CCC2480E0E3DEF4
S11302F0C82A2A9AE2D0C701B601CF91FF90EF90A5
S1130300DF90CF9008954F925F926F927F928F9279
S11303109F92AF92BF92CF92DF92EF92FF928AEFB9
S1130320C3DF6B017C01E8E2F2E040805180612C84
S1130330712CAB01BC01689416F8759567955795B7
S113034047951694D1F7D301C201880F991FAA1FAC
S1130350BB1F9A01AB01281B390B4A0B5B0BA28113
S1130360B381FCD24B015C01072E7BE0B594A794CA
S1130370979487947A95D1F7702DBB27F7FCBA959B
S1130380AF2D9E2D8D2DBC01CD01641975098609F3
S113039097099B01AC01ADD29B01AC01012E1CE07D
S11303A055954795379527951A95D1F7102DA48122
S11303B0B581D4D26B017C010B2EBEE0F594E79499
S11303C0D794C794BA95D1F7B02D8091D3018F9368
S11303D08091D2018F938091D1018F938091D0012C
S11303E08F938EE291E09F938F9321D3D501C40123
S11303F08C0D9D1DAE1DBF1D8093D0019093D10126
S1130400A093D201B093D301BF93AF939F938F93E3
S113041081E491E09F938F930AD3C090D001D09050
S1130420D101E090D201F090D301D701C601880F29
S1130430991FAA1FBB1F880F991FAA1FBB1FC80E95
S1130440D91EEA1EFB1E80E8C80ED11CE11CF11C5B
S1130450CD2CDE2CEF2CFF24E7FCFA94FF92EF92D4
S1130460DF92CF9284E591E09F938F93E0D28DB792
S11304709EB742960FB6F8949EBF0FBE8DBFC701BC
S1130480B601FF90EF90DF90CF90BF90AF909F9018
S11304908F907F906F905F904F9008952A9A229A40
S11304A08CB580618CBD8CB580648CBD259A239AF3
S11304B01092D5011092D40108958091D4019091A5
S11304C0D501009739F001979093D5018093D40119
S11304D0892B19F48CB58F7B8CBD089587E0089522
S11304E091E089272CB5982F96959370922B9CBDFB
S11304F081708DBD0895CF93DF93862FD42FC22FA3
S11305009CB590649CBD9CB590619CBDE7DFE8DF21
S11305108CB52C2F2C70282B2CBD8CB5DD2311F021
S113052090E001C090E2892B8CBD8091D401909120
S1130530D50101969093D5018093D401DF91CF9199
S11305400895CF93C82F873061F4209144023091ED
S1130550450247E050E061E070E08DE591E035D27E
S11305600BC08A3011F48DE0ECDFE0ECF0E0808128
S113057085FFFDCFC093C60080E090E0CF91089541
S11305806F927F928F929F92AF92BF92CF92DF929F
S1130590EF92FF920F931F93CF93DF932091260244
S11305A030912702232B09F0CCC08C010F2EF6EDDD
S11305B08F2EF1E09F2EF02DC0ECD0E00F2EF6EC44
S11305C0CF2ED12CF02D54010F2EF5ED6F2EF1E02E
S11305D07F2EF02D88818823ECF7888184FDC4C0A8
S11305E0888183FDC4C0F60180818D3011F08A308A
S11305F061F48AE0F4018083B801A3DF86ED91E021
S113060090932702809326029CC0893039F090EEA3
S1130610980F9F3520F0803AA8F001C080E2F5E2FF
S11306208F16F2E09F0621F4B80187E08ADFD2CF6B
S113063074019FEFE91AF90AF4018083B80181DF9C
S11306404701C8CF8231B9F130F4833009F492C044
S11306508830E9F0BFCF873129F08F37C1F0853179
S113066079F0B8CFF6ED8F16F1E09F0609F008F4A3
S1130670B1CFF40131978081803209F04AC0AACF0A
S113068086ED881681E0980609F070F5A3CF96ED03
S1130690891691E0990609F008F49CCFB80188E026
S11306A050DFB80180E24DDFB80188E04ADFE1E0C5
S11306B08E1A91088FCFB8018DE043DFF6ED8F16C7
S11306C0F1E09F0609F008F485CF0F2EF6EDEF2E2A
S11306D0F1E0FF2EF02DB801F70181917F0131DFA8
S11306E08E149F04C1F776CFB80188E02ADFB801E1
S11306F080E227DFB80188E024DFF1E08F1A910857
S113070086ED881681E0980679F7F30131964F015A
S113071061CF7401F1E0EF1AF108B80188E011DF4C
S1130720B80180E20EDFB80188E00BDF4701AE14A8
S1130730BF0409F44FCFF70182917F01803269F73A
S113074049CFE0912602F0912702CF0101969093C0
S113075027028093260280818A3021F41092270296
S11307601092260290E008C08EEF9FEF05C08FEF35
S11307709FEF02C08FEF9FEFDF91CF911F910F91F9
S1130780FF90EF90DF90CF90BF90AF909F908F90AD
S11307907F906F9008951092C50080E18093C4000B
S11307A088E18093C10086E08093C200E0E4F2E037
S11307B08EE091E09183808393838283089595B141
S11307C084B180628F7784B9892F806A85B908954E
S11307D004C0615071098109910961157105810590
S11307E09105B9F708958F929F92AF92BF92CF92DD
S11307F0DF92EF92FF920F931F93CF93DF9300D07A
S113080000D000D0CDB7DEB77EDD6B017C010F2EAA
S1130810F4E68F2E912CA12CB12CF02DA50194017E
S113082077D09F938F937F936F93A7019601261B95
S1130830370B480B590BCA01B901A501940168D0C3
S11308405F934F933F932F9385E691E09F938F930C
S11308501F9286E08F938E010F5F1F4F1F930F939C
S113086029D11F930F938DE691E09F938F93DFD04F
S11308700FB6F894DEBF0FBECDBF26960FB6F89420
S1130880DEBF0FBECDBFDF91CF911F910F91FF90BF
S1130890EF90DF90CF90BF90AF909F908F9008958E
S11308A08EDF79DFFBDD8FE791E0D4D080ED0ADCC9
S11308B0C82F1F928F938CE191E09F938F93B7D0B1
S11308C00F900F900F900F90C83591F4C7DC0197EB
S11308D021F48CE991E0BED004C080EB91E0BAD061
S11308E0FFCF81DF6BE67EE689E190E071DFF9CF2F
S11308F0FFCFDB018F939F9327D0BF91AF91A29F2E
S1130900800D911DA39F900DB29F900D1124089509
S1130910052E97FB16F400940FD057FD05D024D074
S113092007FC02D046F408C05095409530952195B7
S11309303F4F4F4F5F4F0895909580957095619507
S11309407F4F8F4F9F4F089531D0A59F900DB49F37
S1130950900DA49F800D911D11240895B7FFF4CF2D
S1130960F3DF821B930B0895A1E21A2EAA1BBB1B73
S1130970FD010DC0AA1FBB1FEE1FFF1FA217B30767
S1130980E407F50720F0A21BB30BE40BF50B661F7D
S1130990771F881F991F1A9469F760957095809541
S11309A090959B01AC01BD01CF010895A29FB001B8
S11309B0B39FC001A39F700D811D1124911DB29F8F
S11309C0700D811D1124911D0895A0E0B0E0EAEEA0
S11309D0F4E025C35B014A017901D90113962C91F6
S11309E021FF1DC0C0E0D0E0C815D905D9F08C01A5
S11309F06C01CA0CDB1CC8010C151D0571F00F5FDE
S1130A001F4FD7011896ED91FC911997B701DC019E
S1130A108C910995892B79F305C02196E5CF80E067
S1130A2090E001C0CE01CDB7DEB7ECE014C3A0E086
S1130A30B0E0ECE1F5E0FDC2AE014B5F5F4FFA01BF
S1130A4061917191AF0180914202909143025FD014
S1130A50E2E00BC30F931F93CF93DF93E091420225
S1130A60F0914302238121FF1BC08C01D0E0C0E040
S1130A70F80181918F016091420270914302DB0180
S1130A801896ED91FC911997882331F00995892BDB
S1130A9079F3DFEFCFEFECCF8AE00995892B19F0DA
S1130AA08FEF9FEF02C08D2F9C2FDF91CF911F916D
S1130AB00F910895AEE0B0E0EFE5F5E0B8C20D891E
S1130AC01E898F89988D26E02C831A83098397FFCA
S1130AD002C080E090E801979E838D83AE01455E5D
S1130AE05F4F698D7A8DCE01019611D04D815E8163
S1130AF057FD0AC02F813885421753070CF49A0119
S1130B00F801E20FF31F10822E96E4E0ACC2ABE0D2
S1130B10B0E0ECE8F5E07DC26C017B018A01FC01E8
S1130B2017821682838181FFBFC1CE0101963C01E9
S1130B30F6019381F70193FD859193FF81917F01E4
S1130B40882309F4ADC1853239F493FD859193FF6F
S1130B5081917F01853221F4B60190E0C0D1E8CFC4
S1130B60912C212C312CFFE1F315D8F08B3279F044
S1130B7038F4803279F08332A1F4232D20611DC032
S1130B808D3261F0803369F4232D216016C0832DEA
S1130B908260382EE32DE4603E2E2AC0F32DF860E7
S1130BA01DC037FC2DC020ED280F2A3040F08E32B6
S1130BB0B9F436FC75C1232D2064322E19C036FEDB
S1130BC006C08AE0989E200D1124922E11C0EAE0FE
S1130BD02E9E200D1124222EF32DF0623F2E08C0EC
S1130BE08C3621F4832D8068382E02C0883641F477
S1130BF0F70193FD859193FF81917F018111B3CF1B
S1130C00982F9F7D9554933028F40C5F1F4F9FE3DA
S1130C1099830DC0833631F0833771F0833509F041
S1130C2055C020C0F801808189830E5F1F4F88243E
S1130C308394912C530112C02801F2E04F0E511CF1
S1130C40F801A080B18036FE03C0692D70E002C0B7
S1130C506FEF7FEFC50138D14C018201F32DFF778F
S1130C603F2E15C0280122E0420E511CF801A0803D
S1130C70B18036FE03C0692D70E002C06FEF7FEFD4
S1130C80C50117D14C01F32DF0683F2E820133FCCE
S1130C9019C0822D90E088169906A0F4B60180E26E
S1130CA090E01DD12A94F5CFF50137FC859137FEEC
S1130CB081915F01B60190E012D121102A9421E0C4
S1130CC0821A91088114910479F7E1C0843611F0F5
S1130CD0893639F5F80137FE07C060817181828158
S1130CE093810C5F1F4F08C060817181072E000C37
S1130CF0880B990B0E5F1F4FF32DFF763F2E97FF46
S1130D0009C090958095709561957F4F8F4F9F4F47
S1130D10F0683F2E2AE030E0A3011DD1882E86180A
S1130D2044C0853731F4232D2F7EB22E2AE030E0E3
S1130D3025C0932D997FB92E8F36C1F018F48835CC
S1130D4079F0AEC0803719F0883721F0A9C0E92FB7
S1130D50E061BE2EB4FE0DC0FB2DF460BF2E09C0B1
S1130D6034FE0AC0292F2660B22E06C028E030E0E7
S1130D7005C020E130E002C020E132E0F801B7FE16
S1130D8007C060817181828193810C5F1F4F06C00F
S1130D906081718180E090E00E5F1F4FA301DBD082
S1130DA0882E8618FB2DFF773F2E36FE0DC0232D8F
S1130DB02E7FA22E891458F434FE0BC032FC09C0D5
S1130DC0832D8E7EA82E05C0B82CA32C03C0B82C6E
S1130DD001C0B92CA4FE0FC0FE01E80DF11D8081F5
S1130DE0803321F49A2D997EA92E09C0A2FE06C053
S1130DF0B394B39404C08A2D867809F0B394A3FC09
S1130E0010C0A0FE06C0B21480F4280C922C9B18CB
S1130E100DC0B21458F4B60180E290E060D0B394EF
S1130E20F8CFB21418F42B1802C0982C212CA4FE6D
S1130E300FC0B60180E390E052D0A2FE16C0A1FC20
S1130E4003C088E790E002C088E590E0B6010CC0DA
S1130E508A2D867851F0A1FE02C08BE201C080E2A7
S1130E60A7FC8DE2B60190E03AD0891430F4B601C3
S1130E7080E390E034D09A94F8CF8A94F301E80D9B
S1130E80F11D8081B60190E02AD08110F6CF222096
S1130E9009F44ECEB60180E290E021D02A94F7CF37
S1130EA0F6018681978102C08FEF9FEF2B96E2E1D6
S1130EB0CCC0FC010590615070400110D8F78095BA
S1130EC090958E0F9F1F0895FC0161507040019012
S1130ED00110D8F7809590958E0F9F1F08950F935A
S1130EE01F93CF93DF93FB01238121FD03C08FEF79
S1130EF09FEF2CC022FF16C0468157812481358183
S1130F004217530744F4A081B1819D012F5F3F4FE5
S1130F10318320838C93268137812F5F3F4F378322
S1130F20268314C08B01EC01FB010084F185E02DC4
S1130F300995892BE1F6D80116968D919C91179706
S1130F40019617969C938E931697CE01DF91CF91BD
S1130F501F910F910895FA01AA27283051F12031E9
S1130F6081F1E8946F936E7F6E5F7F4F8F4F9F4F39
S1130F70AF4FB1E03ED0B4E03CD0670F781F891F7B
S1130F809A1FA11D680F791F8A1F911DA11D6A0F49
S1130F90711D811D911DA11D20D009F468943F91FC
S1130FA02AE0269F11243019305D3193DEF6CF01FB
S1130FB00895462F4770405D4193B3E00FD0C9F7C1
S1130FC0F6CF462F4F70405D4A3318F0495D31FD2E
S1130FD04052419302D0A9F7EACFB4E0A695979581
S1130FE0879577956795BA95C9F700976105710557
S1130FF008959B01AC010A2E0694579547953795A1
S11310002795BA95C9F7620F731F841F951FA01DFA
S113101008952F923F924F925F926F927F928F9298
S11310209F92AF92BF92CF92DF92EF92FF920F9373
S11310301F93CF93DF93CDB7DEB7CA1BDB0B0FB67D
S1131040F894DEBF0FBECDBF09942A88398848883A
S11310505F846E847D848C849B84AA84B984C884D0
S1131060DF80EE80FD800C811B81AA81B981CE0FC7
S1131070D11D0FB6F894DEBF0FBECDBFED010895AC
S1071080F894FFCF0E
S11310840300030002000300030001000100000048
S1131094000300000000A102C002000053656E7347
S11310A46F722049443A20307825780D0A00507232
S11310B4657620745F66696E653A20256C640D0A52
S11310C4004375727220745F66696E653A20256CFC
S11310D4640D0A00543A20256C640D0A002A7269CE
S11310E46E672A0A00256C642E256C640054656DB1
S11310F470657261747572653A2025730D0A002D4A
S11311042D2D2D2D2044656661756C7420746573D2
S113111474696E67202D2D2D2D2D0D0053656E736E
S11311246F7220496E697469616C697A65640D0033
S113113453656E736F7220696E697469616C697A40
S11311446174696F6E206661696C6564210D0000C9
S9030000FC
