S0130000626D703238305F746573742E7372656319
S113000033C000004CC000004AC0000048C00000DB
S113001046C0000044C0000042C0000040C00000D0
S11300203EC000003CC000003AC0000038C00000E0
S113003036C0000034C0000032C0000030C00000F0
S11300402EC000002CC000002AC0000028C0000000
S113005026C0000024C0000022C0000020C0000010
S11300601EC000001CC0000011241FBECFEFD8E04A
S1130070DEBFCDBF12E0A0E0B1E0EAEFFEE002C0D7
S113008005900D92AC36B107D9F722E0ACE6B2E0A8
S113009001C01D92A23EB207E1F749D32CC7B0CFED
S11300A004C06150710981099109611571058105C7
S11300B09105B9F708958EBD00000DB407FEFDCF7C
S11300C08EB50895CF93C82F20E041E060E271EA35
S11300D087E090E057D12A988C2F8068ECDF80E08D
S11300E0EADF2A9ACF910895CF93C82F20E041E008
S11300F060E271EA87E090E045D12A988C2F80680D
S1130100DADF80E0D8DFC82F80E0D5DF2A9A2C2FF1
S113011030E0322F2227A901482BCA01CF9108953C
S1130120E3DF9827892798270895CF93DF9388E8FA
S1130130F7DFC4ECD2E0998388838AE8F1DF9B83FC
S11301408A838CE8EDDF9D838C8389818F938881FA
S11301508F9387E791E09F938F93DBD38B818F936A
S11301608A818F938DE991E09F938F93D2D38D8170
S11301708F938C818F9381EC91E09F938F93C9D35C
S11301808DB79EB70C960FB6F8949EBF0FBE8DBF69
S1130190DF91CF910895CF9380ED94DFC82F1F9204
S11301A08F9387EE91E09F938F93B3D30F900F902B
S11301B00F900F90C83549F4B8DF66E372E880E029
S11301C090E06EDF81E090E002C080E090E0CF91AB
S11301D00895CF92DF92EF92FF92CF93C82F20E041
S11301E041E060E271EA87E090E0CCD02A988C2F5D
S11301F0806861DF80E05FDFC82ED12CE12CF12C18
S1130200FE2CED2CDC2CCC2480E055DFC82AFE2CFF
S1130210ED2CDC2CCC2480E04EDF2A9AA701960139
S1130220282BCA01B901CF91FF90EF90DF90CF90B6
S113023008958F929F92AF92BF92CF92DF92EF92E6
S1130240FF920F931F938AEFC4DFE4ECF2E0008186
S1130250118120E030E0C72ED82EE92EFF24E7FCE0
S1130260FA94C01AD10AE20AF30ADC01CB016894B9
S113027016F8B595A795979587951694D1F7000F1D
S1130280111F221F331F4C015D01801A910AA20A1B
S1130290B30AA5019401A281B3819BD24B015C01F5
S11302A0072E7BE0B594A794979487947A95D1F719
S11302B0702DA7019601C701B60156D29B01AC016E
S11302C0012E1CE055954795379527951A95D1F73A
S11302D0102DA481B5817DD2DC01CB01072E7EE0F7
S11302E0B595A795979587957A95D1F7702D880D33
S11302F0991DAA1DBB1D80936C0290936D02A0935F
S11303006E02B0936F028C019D01000F111F221F1A
S1130310331F000F111F221F331F800F911FA21FB5
S1130320B31F80589F4FAF4FBF4F692F7A2F8B2F2A
S1130330992787FD9A951F910F91FF90EF90DF9079
S1130340CF90BF90AF909F908F9008952A9A229A51
S11303508CB580618CBD8CB580648CBD259A239A44
S11303601092710210927002089587E0089591E04E
S113037089272CB5982F96959370922B9CBD8170EC
S11303808DBD0895CF93DF93862FD42FC22F9CB5B4
S113039090649CBD9CB590619CBDE7DFE8DF8CB5A3
S11303A02C2F2C70282B2CBD8CB5DD2311F090E064
S11303B001C090E2892B8CBD8091700290917102F2
S11303C001969093710280937002DF91CF9108950A
S11303D0CF93C82F873061F42091E0023091E1027D
S11303E047E050E061E070E089EF91E060D20BC03B
S11303F08A3011F48DE0ECDFE0ECF0E0808185FFE1
S1130400FDCFC093C60080E090E0CF9108956F9235
S11304107F928F929F92AF92BF92CF92DF92EF9290
S1130420FF920F931F93CF93DF932091C2023091D9
S1130430C302232B09F0CCC08C010F2EF2E78F2EC0
S1130440F2E09F2EF02DC0ECD0E00F2EF6ECCF2E74
S1130450D12CF02D54010F2EF1E76F2EF2E07F2EF8
S1130460F02D88818823ECF7888184FDC4C08881BD
S113047083FDC4C0F60180818D3011F08A3061F4AF
S11304808AE0F4018083B801A3DF82E792E09093CD
S1130490C3028093C2029CC0893039F090EE980F59
S11304A09F3520F0803AA8F001C080E2F1EC8F166D
S11304B0F2E09F0621F4B80187E08ADFD2CF74010D
S11304C09FEFE91AF90AF4018083B80181DF47013B
S11304D0C8CF8231B9F130F4833009F492C0883046
S11304E0E9F0BFCF873129F08F37C1F0853179F03A
S11304F0B8CFF2E78F16F2E09F0609F008F4B1CF07
S1130500F40131978081803209F04AC0AACF82E792
S1130510881682E0980609F070F5A3CF92E7891651
S113052092E0990609F008F49CCFB80188E050DF06
S1130530B80180E24DDFB80188E04ADFE1E08E1ABD
S113054091088FCFB8018DE043DFF2E78F16F2E018
S11305509F0609F008F485CF0F2EF2E7EF2EF2E0A4
S1130560FF2EF02DB801F70181917F0131DF8E1448
S11305709F04C1F776CFB80188E02ADFB80180E292
S113058027DFB80188E024DFF1E08F1A910882E7C1
S1130590881682E0980679F7F30131964F0161CF0E
S11305A07401F1E0EF1AF108B80188E011DFB80135
S11305B080E20EDFB80188E00BDF4701AE14BF0410
S11305C009F44FCFF70182917F01803269F749CF57
S11305D0E091C202F091C302CF0101969093C3024D
S11305E08093C20280818A3021F41092C302109257
S11305F0C20290E008C08EEF9FEF05C08FEF9FEF1F
S113060002C08FEF9FEFDF91CF911F910F91FF9069
S1130610EF90DF90CF90BF90AF909F908F907F909E
S11306206F9008951092C50080E18093C40088E122
S11306308093C10086E08093C200ECEDF2E080E09C
S113064091E09183808393838283089595B184B1EB
S113065080628F7784B9892F806A85B9089504C030
S1130660615071098109910961157105810591052F
S1130670B9F708958F929F92AF92BF92CF92DF9273
S1130680EF92FF920F931F93CF93DF9300D000D08C
S113069000D0CDB7DEB7CDDD6B017C010F2EF4E6C3
S11306A08F2E912CA12CB12CF02DA50194016BD08F
S11306B09F938F937F936F93A7019601261B370B0C
S11306C0480B590BCA01B901A50194015CD05F9391
S11306D04F933F932F9381E092E09F938F931F92C8
S11306E086E08F938E010F5F1F4F1F930F9354D19A
S11306F01F930F9389E092E09F938F930AD10FB6D3
S1130700F894DEBF0FBECDBF26960FB6F894DEBFB9
S11307100FBECDBFDF91CF911F910F91FF90EF904E
S1130720DF90CF90BF90AF909F908F9008958EDF11
S113073079DF0CDE6BE07BE882E090E090DF8BE118
S113074092E0FAD028DD019721F488E392E0F4D016
S113075004C08CE492E0F0D0FFCF8CDF6BE67EE641
S113076089E190E07CDFF9CFDB018F939F9327D061
S1130770BF91AF91A29F800D911DA39F900DB29F39
S1130780900D11240895052E97FB16F400940FD0B4
S113079057FD05D05BD007FC02D046F408C0509545
S11307A04095309521953F4F4F4F5F4F0895909559
S11307B08095709561957F4F8F4F9F4F089568D0B6
S11307C0A59F900DB49F900DA49F800D911D1124A1
S11307D00895B7FFF4CFF3DF821B930B08952F9294
S11307E03F924F925F926F927F928F929F92AF92BD
S11307F0BF92CF92DF92EF92FF920F931F93CF930A
S1130800DF93CDB7DEB7CA1BDB0B0FB6F894DEBFA0
S11308100FBECDBF09942A88398848885F846E84C6
S11308207D848C849B84AA84B984C884DF80EE8010
S1130830FD800C811B81AA81B981CE0FD11D0FB619
S1130840F894DEBF0FBECDBFED010895A1E21A2ECC
S1130850AA1BBB1BFD010DC0AA1FBB1FEE1FFF1F60
S1130860A217B307E407F50720F0A21BB30BE40BB0
S1130870F50B661F771F881F991F1A9469F76095F7
S11308807095809590959B01AC01BD01CF010895B1
S1130890A29FB001B39FC001A39F700D811D1124BD
S11308A0911DB29F700D811D1124911D0895A0E02A
S11308B0B0E0ECE5F4E099CF5B014A017901D9019C
S11308C013962C9121FF1DC0C0E0D0E0C815D905B6
S11308D0D9F08C016C01CA0CDB1CC8010C151D0578
S11308E071F00F5F1F4FD7011896ED91FC91199786
S11308F0B701DC018C910995892B79F305C0219608
S1130900E5CF80E090E001C0CE01CDB7DEB7ECE0EA
S113091088CFA0E0B0E0EEE8F4E071CFAE014B5F29
S11309205F4FFA0161917191AF018091DE02909164
S1130930DF025FD0E2E07FCF0F931F93CF93DF936B
S1130940E091DE02F091DF02238121FF1BC08C01C4
S1130950D0E0C0E0F80181918F016091DE027091D6
S1130960DF02DB011896ED91FC911997882331F091
S11309700995892B79F3DFEFCFEFECCF8AE0099566
S1130980892B19F08FEF9FEF02C08D2F9C2FDF91E1
S1130990CF911F910F910895AEE0B0E0E1EDF4E046
S11309A02CCF0D891E898F89988D26E02C831A837C
S11309B0098397FF02C080E090E801979E838D83AE
S11309C0AE01455E5F4F698D7A8DCE01019611D0DF
S11309D04D815E8157FD0AC02F8138854217530728
S11309E00CF49A01F801E20FF31F10822E96E4E052
S11309F020CFABE0B0E0EEEFF4E0F1CE6C017B0190
S1130A008A01FC0117821682838181FFBFC1CE0156
S1130A1001963C01F6019381F70193FD859193FFC3
S1130A2081917F01882309F4ADC1853239F493FDA6
S1130A30859193FF81917F01853221F4B60190E085
S1130A40C0D1E8CF912C212C312CFFE1F315D8F043
S1130A508B3279F038F4803279F08332A1F4232D8B
S1130A6020611DC08D3261F0803369F4232D216033
S1130A7016C0832D8260382EE32DE4603E2E2AC0FA
S1130A80F32DF8601DC037FC2DC020ED280F2A304F
S1130A9040F08E32B9F436FC75C1232D2064322E19
S1130AA019C036FE06C08AE0989E200D1124922EAD
S1130AB011C0EAE02E9E200D1124222EF32DF062A7
S1130AC03F2E08C08C3621F4832D8068382E02C056
S1130AD0883641F4F70193FD859193FF81917F015D
S1130AE08111B3CF982F9F7D9554933028F40C5FD8
S1130AF01F4F9FE399830DC0833631F0833771F024
S1130B00833509F055C020C0F801808189830E5FC8
S1130B101F4F88248394912C530112C02801F2E0C2
S1130B204F0E511CF801A080B18036FE03C0692D20
S1130B3070E002C06FEF7FEFC50138D14C01820134
S1130B40F32DFF773F2E15C0280122E0420E511CE1
S1130B50F801A080B18036FE03C0692D70E002C0A8
S1130B606FEF7FEFC50117D14C01F32DF0683F2ED5
S1130B70820133FC19C0822D90E088169906A0F4F6
S1130B80B60180E290E01DD12A94F5CFF50137FC3F
S1130B90859137FE81915F01B60190E012D1211059
S1130BA02A9421E0821A91088114910479F7E1C012
S1130BB0843611F0893639F5F80137FE07C06081B3
S1130BC07181828193810C5F1F4F08C060817181A4
S1130BD0072E000C880B990B0E5F1F4FF32DFF7629
S1130BE03F2E97FF09C090958095709561957F4F32
S1130BF08F4F9F4FF0683F2E2AE030E0A3011DD1B4
S1130C00882E861844C0853731F4232D2F7EB22ECA
S1130C102AE030E025C0932D997FB92E8F36C1F09C
S1130C2018F4883579F0AEC0803719F0883721F090
S1130C30A9C0E92FE061BE2EB4FE0DC0FB2DF46007
S1130C40BF2E09C034FE0AC0292F2660B22E06C06A
S1130C5028E030E005C020E130E002C020E132E0CD
S1130C60F801B7FE07C060817181828193810C5FB6
S1130C701F4F06C06081718180E090E00E5F1F4FBE
S1130C80A301DBD0882E8618FB2DFF773F2E36FE7E
S1130C900DC0232D2E7FA22E891458F434FE0BC0D0
S1130CA032FC09C0832D8E7EA82E05C0B82CA32C3F
S1130CB003C0B82C01C0B92CA4FE0FC0FE01E80D7E
S1130CC0F11D8081803321F49A2D997EA92E09C0CB
S1130CD0A2FE06C0B394B39404C08A2D867809F0AA
S1130CE0B394A3FC10C0A0FE06C0B21480F4280C78
S1130CF0922C9B180DC0B21458F4B60180E290E017
S1130D0060D0B394F8CFB21418F42B1802C0982C06
S1130D10212CA4FE0FC0B60180E390E052D0A2FEC5
S1130D2016C0A1FC03C088E790E002C088E590E00B
S1130D30B6010CC08A2D867851F0A1FE02C08BE268
S1130D4001C080E2A7FC8DE2B60190E03AD089149C
S1130D5030F4B60180E390E034D09A94F8CF8A94CA
S1130D60F301E80DF11D8081B60190E02AD08110D5
S1130D70F6CF222009F44ECEB60180E290E021D0D5
S1130D802A94F7CFF6018681978102C08FEF9FEFF7
S1130D902B96E2E140CDFC010590615070400110BA
S1130DA0D8F7809590958E0F9F1F0895FC01615090
S1130DB0704001900110D8F7809590958E0F9F1F79
S1130DC008950F931F93CF93DF93FB01238121FD9C
S1130DD003C08FEF9FEF2CC022FF16C046815781BE
S1130DE0248135814217530744F4A081B1819D01C8
S1130DF02F5F3F4F318320838C93268137812F5F70
S1130E003F4F3783268314C08B01EC01FB01008420
S1130E10F185E02D0995892BE1F6D80116968D917F
S1130E209C911797019617969C938E931697CE01D3
S1130E30DF91CF911F910F910895FA01AA272830CD
S1130E4051F1203181F1E8946F936E7F6E5F7F4F93
S1130E508F4F9F4FAF4FB1E03ED0B4E03CD0670F0F
S1130E60781F891F9A1FA11D680F791F8A1F911D62
S1130E70A11D6A0F711D811D911DA11D20D009F4B2
S1130E8068943F912AE0269F11243019305D3193F4
S1130E90DEF6CF010895462F4770405D4193B3E0DD
S1130EA00FD0C9F7F6CF462F4F70405D4A3318F084
S1130EB0495D31FD4052419302D0A9F7EACFB4E035
S1130EC0A6959795879577956795BA95C9F70097ED
S1130ED06105710508959B01AC010A2E069457958E
S1130EE0479537952795BA95C9F7620F731F841FE5
S10D0EF0951FA01D0895F894FFCF8C
S1130EFA0000000300000000E801070200004D6F33
S1130F0A646520636F72726563740D0054656D7055
S1130F1A2073616D706C696E6720636F72726563AA
S1130F2A740D0050726573737572652073616D7008
S1130F3A6C696E6720636F72726563740D0046692B
S1130F4A6C746572696E6720636F72726563740D7F
S1130F5A005374616E6462792074696D6520636FED
S1130F6A72726563740D000D0A626D703238305FF7
S1130F7A63616C69625F646174615F726561642E46
S1130F8A6469675F54313A2025640D0A00626D7002
S1130F9A3238305F63616C69625F646174615F7285
S1130FAA6561642E6469675F54323A2025640D0AC8
S1130FBA00626D703238305F63616C69625F6461CC
S1130FCA74615F726561642E6469675F54333A20A1
S1130FDA25640D0A0D0A0053656E736F7220494425
S1130FEA3A20307825780D0A002A72696E672A0A2F
S1130FFA00256C642E256C640054656D70657261FD
S113100A747572653A2025730D0A002D2D2D2D2D28
S113101A2044656661756C742074657374696E67BF
S113102A202D2D2D2D2D0D0053656E736F722049C1
S113103A6E697469616C697A65640D0053656E73CF
S113104A6F7220696E697469616C697A6174696F17
S10F105A6E206661696C6564210D000065
S9030000FC
